{
  "_format": "hh-sol-artifact-1",
  "contractName": "HashedTimelockERC20",
  "sourceName": "contracts/HashedTimelockERC20.sol",
  "abi": [
    {
      "inputs": [],
      "stateMutability": "nonpayable",
      "type": "constructor"
    },
    {
      "anonymous": false,
      "inputs": [
        {
          "indexed": true,
          "internalType": "bytes32",
          "name": "contractId",
          "type": "bytes32"
        },
        {
          "indexed": true,
          "internalType": "address",
          "name": "sender",
          "type": "address"
        },
        {
          "indexed": true,
          "internalType": "address",
          "name": "receiver",
          "type": "address"
        },
        {
          "indexed": false,
          "internalType": "address",
          "name": "tokenContract",
          "type": "address"
        },
        {
          "indexed": false,
          "internalType": "uint256",
          "name": "amount",
          "type": "uint256"
        },
        {
          "indexed": false,
          "internalType": "bytes32",
          "name": "hashlock",
          "type": "bytes32"
        },
        {
          "indexed": false,
          "internalType": "uint256",
          "name": "timelock",
          "type": "uint256"
        }
      ],
      "name": "HTLCERC20New",
      "type": "event"
    },
    {
      "anonymous": false,
      "inputs": [
        {
          "indexed": true,
          "internalType": "bytes32",
          "name": "contractId",
          "type": "bytes32"
        }
      ],
      "name": "HTLCERC20Refund",
      "type": "event"
    },
    {
      "anonymous": false,
      "inputs": [
        {
          "indexed": true,
          "internalType": "bytes32",
          "name": "contractId",
          "type": "bytes32"
        }
      ],
      "name": "HTLCERC20Withdraw",
      "type": "event"
    },
    {
      "inputs": [
        {
          "internalType": "bytes32",
          "name": "_contractId",
          "type": "bytes32"
        }
      ],
      "name": "getContract",
      "outputs": [
        {
          "internalType": "address",
          "name": "sender",
          "type": "address"
        },
        {
          "internalType": "address",
          "name": "receiver",
          "type": "address"
        },
        {
          "internalType": "address",
          "name": "tokenContract",
          "type": "address"
        },
        {
          "internalType": "uint256",
          "name": "amount",
          "type": "uint256"
        },
        {
          "internalType": "bytes32",
          "name": "hashlock",
          "type": "bytes32"
        },
        {
          "internalType": "uint256",
          "name": "timelock",
          "type": "uint256"
        },
        {
          "internalType": "bool",
          "name": "withdrawn",
          "type": "bool"
        },
        {
          "internalType": "bool",
          "name": "refunded",
          "type": "bool"
        },
        {
          "internalType": "bytes32",
          "name": "preimage",
          "type": "bytes32"
        }
      ],
      "stateMutability": "view",
      "type": "function"
    },
    {
      "inputs": [
        {
          "internalType": "bytes32",
          "name": "_contractId",
          "type": "bytes32"
        },
        {
          "internalType": "address",
          "name": "_receiver",
          "type": "address"
        },
        {
          "internalType": "bytes32",
          "name": "_hashlock",
          "type": "bytes32"
        },
        {
          "internalType": "uint256",
          "name": "_timelock",
          "type": "uint256"
        },
        {
          "internalType": "address",
          "name": "_tokenContract",
          "type": "address"
        },
        {
          "internalType": "uint256",
          "name": "_amount",
          "type": "uint256"
        }
      ],
      "name": "newContract",
      "outputs": [],
      "stateMutability": "nonpayable",
      "type": "function"
    },
    {
      "inputs": [
        {
          "internalType": "bytes32",
          "name": "_contractId",
          "type": "bytes32"
        }
      ],
      "name": "refund",
      "outputs": [
        {
          "internalType": "bool",
          "name": "",
          "type": "bool"
        }
      ],
      "stateMutability": "nonpayable",
      "type": "function"
    },
    {
      "inputs": [
        {
          "internalType": "bytes32",
          "name": "_contractId",
          "type": "bytes32"
        },
        {
          "internalType": "bytes32",
          "name": "_preimage",
          "type": "bytes32"
        }
      ],
      "name": "withdraw",
      "outputs": [
        {
          "internalType": "bool",
          "name": "",
          "type": "bool"
        }
      ],
      "stateMutability": "nonpayable",
      "type": "function"
    }
  ],
  "bytecode": "0x608060405234801561001057600080fd5b50611813806100206000396000f3fe608060405234801561001057600080fd5b506004361061004c5760003560e01c8063310a491314610051578063636151491461006d5780637249fbb61461009d578063e16c7d98146100cd575b600080fd5b61006b60048036038101906100669190610e5d565b610105565b005b61008760048036038101906100829190610eea565b61053e565b6040516100949190610f45565b60405180910390f35b6100b760048036038101906100b29190610f60565b6108a0565b6040516100c49190610f45565b60405180910390f35b6100e760048036038101906100e29190610f60565b610bf0565b6040516100fc99989796959493929190610fba565b60405180910390f35b8133826000811161014b576040517f08c379a0000000000000000000000000000000000000000000000000000000008152600401610142906110a4565b60405180910390fd5b808373ffffffffffffffffffffffffffffffffffffffff1663dd62ed3e84306040518363ffffffff1660e01b81526004016101879291906110c4565b602060405180830381865afa1580156101a4573d6000803e3d6000fd5b505050506040513d601f19601f820116820180604052508101906101c89190611102565b1015610209576040517f08c379a0000000000000000000000000000000000000000000000000000000008152600401610200906111a1565b60405180910390fd5b8542811161024c576040517f08c379a000000000000000000000000000000000000000000000000000000000815260040161024390611233565b60405180910390fd5b6102558a610d20565b1561025f57600080fd5b8573ffffffffffffffffffffffffffffffffffffffff166323b872dd3330886040518463ffffffff1660e01b815260040161029c93929190611253565b6020604051808303816000875af11580156102bb573d6000803e3d6000fd5b505050506040513d601f19601f820116820180604052508101906102df91906112b6565b6102e857600080fd5b6040518061012001604052803373ffffffffffffffffffffffffffffffffffffffff1681526020018a73ffffffffffffffffffffffffffffffffffffffff1681526020018773ffffffffffffffffffffffffffffffffffffffff1681526020018681526020018981526020018881526020016000151581526020016000151581526020016000801b8152506000808c815260200190815260200160002060008201518160000160006101000a81548173ffffffffffffffffffffffffffffffffffffffff021916908373ffffffffffffffffffffffffffffffffffffffff16021790555060208201518160010160006101000a81548173ffffffffffffffffffffffffffffffffffffffff021916908373ffffffffffffffffffffffffffffffffffffffff16021790555060408201518160020160006101000a81548173ffffffffffffffffffffffffffffffffffffffff021916908373ffffffffffffffffffffffffffffffffffffffff160217905550606082015181600301556080820151816004015560a0820151816005015560c08201518160060160006101000a81548160ff02191690831515021790555060e08201518160060160016101000a81548160ff02191690831515021790555061010082015181600701559050508873ffffffffffffffffffffffffffffffffffffffff163373ffffffffffffffffffffffffffffffffffffffff168b7f31a346f672cf5073bda81a99e0a28aff2bfe8c2db87d462bb2f4c114476a46ee89898d8d60405161052a94939291906112e3565b60405180910390a450505050505050505050565b60008261054a81610d20565b610589576040517f08c379a000000000000000000000000000000000000000000000000000000000815260040161058090611374565b60405180910390fd5b838360028160405160200161059e91906113b5565b6040516020818303038152906040526040516105ba9190611441565b602060405180830381855afa1580156105d7573d6000803e3d6000fd5b5050506040513d601f19601f820116820180604052508101906105fa919061146d565b6000808481526020019081526020016000206004015414610650576040517f08c379a0000000000000000000000000000000000000000000000000000000008152600401610647906114e6565b60405180910390fd5b853373ffffffffffffffffffffffffffffffffffffffff1660008083815260200190815260200160002060010160009054906101000a900473ffffffffffffffffffffffffffffffffffffffff1673ffffffffffffffffffffffffffffffffffffffff16146106f4576040517f08c379a00000000000000000000000000000000000000000000000000000000081526004016106eb90611552565b60405180910390fd5b6000151560008083815260200190815260200160002060060160009054906101000a900460ff1615151461075d576040517f08c379a0000000000000000000000000000000000000000000000000000000008152600401610754906115be565b60405180910390fd5b6000806000898152602001908152602001600020905086816007018190555060018160060160006101000a81548160ff0219169083151502179055508060020160009054906101000a900473ffffffffffffffffffffffffffffffffffffffff1673ffffffffffffffffffffffffffffffffffffffff1663a9059cbb8260010160009054906101000a900473ffffffffffffffffffffffffffffffffffffffff1683600301546040518363ffffffff1660e01b81526004016108209291906115de565b6020604051808303816000875af115801561083f573d6000803e3d6000fd5b505050506040513d601f19601f8201168201806040525081019061086391906112b6565b50877f15a71365fee30a355046c80d10aab98a49c3558b2272658d6c551733203e9bbe60405160405180910390a260019550505050505092915050565b6000816108ac81610d20565b6108eb576040517f08c379a00000000000000000000000000000000000000000000000000000000081526004016108e290611374565b60405180910390fd5b823373ffffffffffffffffffffffffffffffffffffffff1660008083815260200190815260200160002060000160009054906101000a900473ffffffffffffffffffffffffffffffffffffffff1673ffffffffffffffffffffffffffffffffffffffff161461098f576040517f08c379a000000000000000000000000000000000000000000000000000000000815260040161098690611653565b60405180910390fd5b6000151560008083815260200190815260200160002060060160019054906101000a900460ff161515146109f8576040517f08c379a00000000000000000000000000000000000000000000000000000000081526004016109ef906116bf565b60405180910390fd5b6000151560008083815260200190815260200160002060060160009054906101000a900460ff16151514610a61576040517f08c379a0000000000000000000000000000000000000000000000000000000008152600401610a589061172b565b60405180910390fd5b42600080838152602001908152602001600020600501541115610ab9576040517f08c379a0000000000000000000000000000000000000000000000000000000008152600401610ab0906117bd565b60405180910390fd5b6000806000868152602001908152602001600020905060018160060160016101000a81548160ff0219169083151502179055508060020160009054906101000a900473ffffffffffffffffffffffffffffffffffffffff1673ffffffffffffffffffffffffffffffffffffffff1663a9059cbb8260000160009054906101000a900473ffffffffffffffffffffffffffffffffffffffff1683600301546040518363ffffffff1660e01b8152600401610b739291906115de565b6020604051808303816000875af1158015610b92573d6000803e3d6000fd5b505050506040513d601f19601f82011682018060405250810190610bb691906112b6565b50847ff97bb6718c3bf29e51d27c00a46276abc2cf35c7f1d5a1c71bec2c82421bb83060405160405180910390a260019350505050919050565b6000806000806000806000806000801515610c0a8b610d20565b151503610c425760008060008060008060008060008460001b94508060001b9050985098509850985098509850985098509850610d13565b60008060008c815260200190815260200160002090508060000160009054906101000a900473ffffffffffffffffffffffffffffffffffffffff168160010160009054906101000a900473ffffffffffffffffffffffffffffffffffffffff168260020160009054906101000a900473ffffffffffffffffffffffffffffffffffffffff168360030154846004015485600501548660060160009054906101000a900460ff168760060160019054906101000a900460ff168860070154995099509950995099509950995099509950505b9193959799909294969850565b60008073ffffffffffffffffffffffffffffffffffffffff1660008084815260200190815260200160002060000160009054906101000a900473ffffffffffffffffffffffffffffffffffffffff1673ffffffffffffffffffffffffffffffffffffffff1614159050919050565b600080fd5b6000819050919050565b610da681610d93565b8114610db157600080fd5b50565b600081359050610dc381610d9d565b92915050565b600073ffffffffffffffffffffffffffffffffffffffff82169050919050565b6000610df482610dc9565b9050919050565b610e0481610de9565b8114610e0f57600080fd5b50565b600081359050610e2181610dfb565b92915050565b6000819050919050565b610e3a81610e27565b8114610e4557600080fd5b50565b600081359050610e5781610e31565b92915050565b60008060008060008060c08789031215610e7a57610e79610d8e565b5b6000610e8889828a01610db4565b9650506020610e9989828a01610e12565b9550506040610eaa89828a01610db4565b9450506060610ebb89828a01610e48565b9350506080610ecc89828a01610e12565b92505060a0610edd89828a01610e48565b9150509295509295509295565b60008060408385031215610f0157610f00610d8e565b5b6000610f0f85828601610db4565b9250506020610f2085828601610db4565b9150509250929050565b60008115159050919050565b610f3f81610f2a565b82525050565b6000602082019050610f5a6000830184610f36565b92915050565b600060208284031215610f7657610f75610d8e565b5b6000610f8484828501610db4565b91505092915050565b610f9681610de9565b82525050565b610fa581610e27565b82525050565b610fb481610d93565b82525050565b600061012082019050610fd0600083018c610f8d565b610fdd602083018b610f8d565b610fea604083018a610f8d565b610ff76060830189610f9c565b6110046080830188610fab565b61101160a0830187610f9c565b61101e60c0830186610f36565b61102b60e0830185610f36565b611039610100830184610fab565b9a9950505050505050505050565b600082825260208201905092915050565b7f746f6b656e20616d6f756e74206d757374206265203e20300000000000000000600082015250565b600061108e601883611047565b915061109982611058565b602082019050919050565b600060208201905081810360008301526110bd81611081565b9050919050565b60006040820190506110d96000830185610f8d565b6110e66020830184610f8d565b9392505050565b6000815190506110fc81610e31565b92915050565b60006020828403121561111857611117610d8e565b5b6000611126848285016110ed565b91505092915050565b7f746f6b656e20616c6c6f77616e6365206d757374206265203e3d20616d6f756e60008201527f7400000000000000000000000000000000000000000000000000000000000000602082015250565b600061118b602183611047565b91506111968261112f565b604082019050919050565b600060208201905081810360008301526111ba8161117e565b9050919050565b7f74696d656c6f636b2074696d65206d75737420626520696e207468652066757460008201527f7572650000000000000000000000000000000000000000000000000000000000602082015250565b600061121d602383611047565b9150611228826111c1565b604082019050919050565b6000602082019050818103600083015261124c81611210565b9050919050565b60006060820190506112686000830186610f8d565b6112756020830185610f8d565b6112826040830184610f9c565b949350505050565b61129381610f2a565b811461129e57600080fd5b50565b6000815190506112b08161128a565b92915050565b6000602082840312156112cc576112cb610d8e565b5b60006112da848285016112a1565b91505092915050565b60006080820190506112f86000830187610f8d565b6113056020830186610f9c565b6113126040830185610fab565b61131f6060830184610f9c565b95945050505050565b7f636f6e7472616374496420646f6573206e6f7420657869737400000000000000600082015250565b600061135e601983611047565b915061136982611328565b602082019050919050565b6000602082019050818103600083015261138d81611351565b9050919050565b6000819050919050565b6113af6113aa82610d93565b611394565b82525050565b60006113c1828461139e565b60208201915081905092915050565b600081519050919050565b600081905092915050565b60005b838110156114045780820151818401526020810190506113e9565b60008484015250505050565b600061141b826113d0565b61142581856113db565b93506114358185602086016113e6565b80840191505092915050565b600061144d8284611410565b915081905092915050565b60008151905061146781610d9d565b92915050565b60006020828403121561148357611482610d8e565b5b600061149184828501611458565b91505092915050565b7f686173686c6f636b206861736820646f6573206e6f74206d6174636800000000600082015250565b60006114d0601c83611047565b91506114db8261149a565b602082019050919050565b600060208201905081810360008301526114ff816114c3565b9050919050565b7f776974686472617761626c653a206e6f74207265636569766572000000000000600082015250565b600061153c601a83611047565b915061154782611506565b602082019050919050565b6000602082019050818103600083015261156b8161152f565b9050919050565b7f776974686472617761626c653a20616c72656164792077697468647261776e00600082015250565b60006115a8601f83611047565b91506115b382611572565b602082019050919050565b600060208201905081810360008301526115d78161159b565b9050919050565b60006040820190506115f36000830185610f8d565b6116006020830184610f9c565b9392505050565b7f726566756e6461626c653a206e6f742073656e64657200000000000000000000600082015250565b600061163d601683611047565b915061164882611607565b602082019050919050565b6000602082019050818103600083015261166c81611630565b9050919050565b7f726566756e6461626c653a20616c726561647920726566756e64656400000000600082015250565b60006116a9601c83611047565b91506116b482611673565b602082019050919050565b600060208201905081810360008301526116d88161169c565b9050919050565b7f726566756e6461626c653a20616c72656164792077697468647261776e000000600082015250565b6000611715601d83611047565b9150611720826116df565b602082019050919050565b6000602082019050818103600083015261174481611708565b9050919050565b7f726566756e6461626c653a2074696d656c6f636b206e6f74207965742070617360008201527f7365640000000000000000000000000000000000000000000000000000000000602082015250565b60006117a7602383611047565b91506117b28261174b565b604082019050919050565b600060208201905081810360008301526117d68161179a565b905091905056fea2646970667358221220ed0c30a49a856d17aa38f2628e55c55f50bd399c28a6bfd8a7bd6df14bab8dc464736f6c63430008100033",
  "linkReferences": {},
  "deployedLinkReferences": {}
}